{
  "contractName": "Scolaire",
  "abi": [
    {
      "inputs": [
        {
          "internalType": "address",
          "name": "initialOwner",
          "type": "address"
        }
      ],
      "stateMutability": "nonpayable",
      "type": "constructor"
    },
    {
      "inputs": [],
      "name": "ERC721EnumerableForbiddenBatchMint",
      "type": "error"
    },
    {
      "inputs": [
        {
          "internalType": "address",
          "name": "sender",
          "type": "address"
        },
        {
          "internalType": "uint256",
          "name": "tokenId",
          "type": "uint256"
        },
        {
          "internalType": "address",
          "name": "owner",
          "type": "address"
        }
      ],
      "name": "ERC721IncorrectOwner",
      "type": "error"
    },
    {
      "inputs": [
        {
          "internalType": "address",
          "name": "operator",
          "type": "address"
        },
        {
          "internalType": "uint256",
          "name": "tokenId",
          "type": "uint256"
        }
      ],
      "name": "ERC721InsufficientApproval",
      "type": "error"
    },
    {
      "inputs": [
        {
          "internalType": "address",
          "name": "approver",
          "type": "address"
        }
      ],
      "name": "ERC721InvalidApprover",
      "type": "error"
    },
    {
      "inputs": [
        {
          "internalType": "address",
          "name": "operator",
          "type": "address"
        }
      ],
      "name": "ERC721InvalidOperator",
      "type": "error"
    },
    {
      "inputs": [
        {
          "internalType": "address",
          "name": "owner",
          "type": "address"
        }
      ],
      "name": "ERC721InvalidOwner",
      "type": "error"
    },
    {
      "inputs": [
        {
          "internalType": "address",
          "name": "receiver",
          "type": "address"
        }
      ],
      "name": "ERC721InvalidReceiver",
      "type": "error"
    },
    {
      "inputs": [
        {
          "internalType": "address",
          "name": "sender",
          "type": "address"
        }
      ],
      "name": "ERC721InvalidSender",
      "type": "error"
    },
    {
      "inputs": [
        {
          "internalType": "uint256",
          "name": "tokenId",
          "type": "uint256"
        }
      ],
      "name": "ERC721NonexistentToken",
      "type": "error"
    },
    {
      "inputs": [
        {
          "internalType": "address",
          "name": "owner",
          "type": "address"
        },
        {
          "internalType": "uint256",
          "name": "index",
          "type": "uint256"
        }
      ],
      "name": "ERC721OutOfBoundsIndex",
      "type": "error"
    },
    {
      "inputs": [
        {
          "internalType": "address",
          "name": "owner",
          "type": "address"
        }
      ],
      "name": "OwnableInvalidOwner",
      "type": "error"
    },
    {
      "inputs": [
        {
          "internalType": "address",
          "name": "account",
          "type": "address"
        }
      ],
      "name": "OwnableUnauthorizedAccount",
      "type": "error"
    },
    {
      "anonymous": false,
      "inputs": [
        {
          "indexed": true,
          "internalType": "address",
          "name": "owner",
          "type": "address"
        },
        {
          "indexed": true,
          "internalType": "address",
          "name": "approved",
          "type": "address"
        },
        {
          "indexed": true,
          "internalType": "uint256",
          "name": "tokenId",
          "type": "uint256"
        }
      ],
      "name": "Approval",
      "type": "event"
    },
    {
      "anonymous": false,
      "inputs": [
        {
          "indexed": true,
          "internalType": "address",
          "name": "owner",
          "type": "address"
        },
        {
          "indexed": true,
          "internalType": "address",
          "name": "operator",
          "type": "address"
        },
        {
          "indexed": false,
          "internalType": "bool",
          "name": "approved",
          "type": "bool"
        }
      ],
      "name": "ApprovalForAll",
      "type": "event"
    },
    {
      "anonymous": false,
      "inputs": [
        {
          "indexed": false,
          "internalType": "uint256",
          "name": "_fromTokenId",
          "type": "uint256"
        },
        {
          "indexed": false,
          "internalType": "uint256",
          "name": "_toTokenId",
          "type": "uint256"
        }
      ],
      "name": "BatchMetadataUpdate",
      "type": "event"
    },
    {
      "anonymous": false,
      "inputs": [
        {
          "indexed": false,
          "internalType": "uint256",
          "name": "_tokenId",
          "type": "uint256"
        }
      ],
      "name": "MetadataUpdate",
      "type": "event"
    },
    {
      "anonymous": false,
      "inputs": [
        {
          "indexed": true,
          "internalType": "address",
          "name": "previousOwner",
          "type": "address"
        },
        {
          "indexed": true,
          "internalType": "address",
          "name": "newOwner",
          "type": "address"
        }
      ],
      "name": "OwnershipTransferred",
      "type": "event"
    },
    {
      "anonymous": false,
      "inputs": [
        {
          "indexed": true,
          "internalType": "address",
          "name": "from",
          "type": "address"
        },
        {
          "indexed": true,
          "internalType": "address",
          "name": "to",
          "type": "address"
        },
        {
          "indexed": true,
          "internalType": "uint256",
          "name": "tokenId",
          "type": "uint256"
        }
      ],
      "name": "Transfer",
      "type": "event"
    },
    {
      "inputs": [
        {
          "internalType": "address",
          "name": "to",
          "type": "address"
        },
        {
          "internalType": "uint256",
          "name": "tokenId",
          "type": "uint256"
        }
      ],
      "name": "approve",
      "outputs": [],
      "stateMutability": "nonpayable",
      "type": "function"
    },
    {
      "inputs": [
        {
          "internalType": "address",
          "name": "owner",
          "type": "address"
        }
      ],
      "name": "balanceOf",
      "outputs": [
        {
          "internalType": "uint256",
          "name": "",
          "type": "uint256"
        }
      ],
      "stateMutability": "view",
      "type": "function",
      "constant": true
    },
    {
      "inputs": [
        {
          "internalType": "uint256",
          "name": "tokenId",
          "type": "uint256"
        }
      ],
      "name": "burn",
      "outputs": [],
      "stateMutability": "nonpayable",
      "type": "function"
    },
    {
      "inputs": [
        {
          "internalType": "uint256",
          "name": "tokenId",
          "type": "uint256"
        }
      ],
      "name": "getApproved",
      "outputs": [
        {
          "internalType": "address",
          "name": "",
          "type": "address"
        }
      ],
      "stateMutability": "view",
      "type": "function",
      "constant": true
    },
    {
      "inputs": [
        {
          "internalType": "address",
          "name": "owner",
          "type": "address"
        },
        {
          "internalType": "address",
          "name": "operator",
          "type": "address"
        }
      ],
      "name": "isApprovedForAll",
      "outputs": [
        {
          "internalType": "bool",
          "name": "",
          "type": "bool"
        }
      ],
      "stateMutability": "view",
      "type": "function",
      "constant": true
    },
    {
      "inputs": [],
      "name": "name",
      "outputs": [
        {
          "internalType": "string",
          "name": "",
          "type": "string"
        }
      ],
      "stateMutability": "view",
      "type": "function",
      "constant": true
    },
    {
      "inputs": [],
      "name": "owner",
      "outputs": [
        {
          "internalType": "address",
          "name": "",
          "type": "address"
        }
      ],
      "stateMutability": "view",
      "type": "function",
      "constant": true
    },
    {
      "inputs": [
        {
          "internalType": "uint256",
          "name": "tokenId",
          "type": "uint256"
        }
      ],
      "name": "ownerOf",
      "outputs": [
        {
          "internalType": "address",
          "name": "",
          "type": "address"
        }
      ],
      "stateMutability": "view",
      "type": "function",
      "constant": true
    },
    {
      "inputs": [],
      "name": "renounceOwnership",
      "outputs": [],
      "stateMutability": "nonpayable",
      "type": "function"
    },
    {
      "inputs": [
        {
          "internalType": "address",
          "name": "from",
          "type": "address"
        },
        {
          "internalType": "address",
          "name": "to",
          "type": "address"
        },
        {
          "internalType": "uint256",
          "name": "tokenId",
          "type": "uint256"
        }
      ],
      "name": "safeTransferFrom",
      "outputs": [],
      "stateMutability": "nonpayable",
      "type": "function"
    },
    {
      "inputs": [
        {
          "internalType": "address",
          "name": "from",
          "type": "address"
        },
        {
          "internalType": "address",
          "name": "to",
          "type": "address"
        },
        {
          "internalType": "uint256",
          "name": "tokenId",
          "type": "uint256"
        },
        {
          "internalType": "bytes",
          "name": "data",
          "type": "bytes"
        }
      ],
      "name": "safeTransferFrom",
      "outputs": [],
      "stateMutability": "nonpayable",
      "type": "function"
    },
    {
      "inputs": [
        {
          "internalType": "address",
          "name": "operator",
          "type": "address"
        },
        {
          "internalType": "bool",
          "name": "approved",
          "type": "bool"
        }
      ],
      "name": "setApprovalForAll",
      "outputs": [],
      "stateMutability": "nonpayable",
      "type": "function"
    },
    {
      "inputs": [],
      "name": "symbol",
      "outputs": [
        {
          "internalType": "string",
          "name": "",
          "type": "string"
        }
      ],
      "stateMutability": "view",
      "type": "function",
      "constant": true
    },
    {
      "inputs": [
        {
          "internalType": "uint256",
          "name": "index",
          "type": "uint256"
        }
      ],
      "name": "tokenByIndex",
      "outputs": [
        {
          "internalType": "uint256",
          "name": "",
          "type": "uint256"
        }
      ],
      "stateMutability": "view",
      "type": "function",
      "constant": true
    },
    {
      "inputs": [
        {
          "internalType": "address",
          "name": "owner",
          "type": "address"
        },
        {
          "internalType": "uint256",
          "name": "index",
          "type": "uint256"
        }
      ],
      "name": "tokenOfOwnerByIndex",
      "outputs": [
        {
          "internalType": "uint256",
          "name": "",
          "type": "uint256"
        }
      ],
      "stateMutability": "view",
      "type": "function",
      "constant": true
    },
    {
      "inputs": [],
      "name": "totalSupply",
      "outputs": [
        {
          "internalType": "uint256",
          "name": "",
          "type": "uint256"
        }
      ],
      "stateMutability": "view",
      "type": "function",
      "constant": true
    },
    {
      "inputs": [
        {
          "internalType": "address",
          "name": "from",
          "type": "address"
        },
        {
          "internalType": "address",
          "name": "to",
          "type": "address"
        },
        {
          "internalType": "uint256",
          "name": "tokenId",
          "type": "uint256"
        }
      ],
      "name": "transferFrom",
      "outputs": [],
      "stateMutability": "nonpayable",
      "type": "function"
    },
    {
      "inputs": [
        {
          "internalType": "address",
          "name": "newOwner",
          "type": "address"
        }
      ],
      "name": "transferOwnership",
      "outputs": [],
      "stateMutability": "nonpayable",
      "type": "function"
    },
    {
      "inputs": [
        {
          "internalType": "address",
          "name": "to",
          "type": "address"
        },
        {
          "internalType": "string",
          "name": "uri",
          "type": "string"
        }
      ],
      "name": "safeMint",
      "outputs": [],
      "stateMutability": "nonpayable",
      "type": "function"
    },
    {
      "inputs": [
        {
          "internalType": "uint256",
          "name": "tokenId",
          "type": "uint256"
        }
      ],
      "name": "tokenURI",
      "outputs": [
        {
          "internalType": "string",
          "name": "",
          "type": "string"
        }
      ],
      "stateMutability": "view",
      "type": "function",
      "constant": true
    },
    {
      "inputs": [
        {
          "internalType": "bytes4",
          "name": "interfaceId",
          "type": "bytes4"
        }
      ],
      "name": "supportsInterface",
      "outputs": [
        {
          "internalType": "bool",
          "name": "",
          "type": "bool"
        }
      ],
      "stateMutability": "view",
      "type": "function",
      "constant": true
    }
  ],
  "bytecode": "0x608060405234801562000010575f80fd5b506040516200332c3803806200332c83398181016040528101906200003691906200027c565b806040518060400160405280600881526020017f53636f6c616972650000000000000000000000000000000000000000000000008152506040518060400160405280600481526020017f53434f4c00000000000000000000000000000000000000000000000000000000815250815f9081620000b3919062000510565b508060019081620000c5919062000510565b5050505f73ffffffffffffffffffffffffffffffffffffffff168173ffffffffffffffffffffffffffffffffffffffff16036200013b575f6040517f1e4fbdf700000000000000000000000000000000000000000000000000000000815260040162000132919062000605565b60405180910390fd5b6200014c816200015460201b60201c565b505062000620565b5f600b5f9054906101000a900473ffffffffffffffffffffffffffffffffffffffff16905081600b5f6101000a81548173ffffffffffffffffffffffffffffffffffffffff021916908373ffffffffffffffffffffffffffffffffffffffff1602179055508173ffffffffffffffffffffffffffffffffffffffff168173ffffffffffffffffffffffffffffffffffffffff167f8be0079c531659141344cd1fd0a4f28419497f9722a3daafe3b4186f6b6457e060405160405180910390a35050565b5f80fd5b5f73ffffffffffffffffffffffffffffffffffffffff82169050919050565b5f62000246826200021b565b9050919050565b62000258816200023a565b811462000263575f80fd5b50565b5f8151905062000276816200024d565b92915050565b5f6020828403121562000294576200029362000217565b5b5f620002a38482850162000266565b91505092915050565b5f81519050919050565b7f4e487b71000000000000000000000000000000000000000000000000000000005f52604160045260245ffd5b7f4e487b71000000000000000000000000000000000000000000000000000000005f52602260045260245ffd5b5f60028204905060018216806200032857607f821691505b6020821081036200033e576200033d620002e3565b5b50919050565b5f819050815f5260205f209050919050565b5f6020601f8301049050919050565b5f82821b905092915050565b5f60088302620003a27fffffffffffffffffffffffffffffffffffffffffffffffffffffffffffffffff8262000365565b620003ae868362000365565b95508019841693508086168417925050509392505050565b5f819050919050565b5f819050919050565b5f620003f8620003f2620003ec84620003c6565b620003cf565b620003c6565b9050919050565b5f819050919050565b6200041383620003d8565b6200042b6200042282620003ff565b84845462000371565b825550505050565b5f90565b6200044162000433565b6200044e81848462000408565b505050565b5b818110156200047557620004695f8262000437565b60018101905062000454565b5050565b601f821115620004c4576200048e8162000344565b620004998462000356565b81016020851015620004a9578190505b620004c1620004b88562000356565b83018262000453565b50505b505050565b5f82821c905092915050565b5f620004e65f1984600802620004c9565b1980831691505092915050565b5f620005008383620004d5565b9150826002028217905092915050565b6200051b82620002ac565b67ffffffffffffffff811115620005375762000536620002b6565b5b62000543825462000310565b6200055082828562000479565b5f60209050601f83116001811462000586575f841562000571578287015190505b6200057d8582620004f3565b865550620005ec565b601f198416620005968662000344565b5f5b82811015620005bf5784890151825560018201915060208501945060208101905062000598565b86831015620005df5784890151620005db601f891682620004d5565b8355505b6001600288020188555050505b505050505050565b620005ff816200023a565b82525050565b5f6020820190506200061a5f830184620005f4565b92915050565b612cfe806200062e5f395ff3fe608060405234801561000f575f80fd5b5060043610610135575f3560e01c80636352211e116100b6578063a22cb4651161007a578063a22cb4651461034b578063b88d4fde14610367578063c87b56dd14610383578063d204c45e146103b3578063e985e9c5146103cf578063f2fde38b146103ff57610135565b80636352211e146102a557806370a08231146102d5578063715018a6146103055780638da5cb5b1461030f57806395d89b411461032d57610135565b806323b872dd116100fd57806323b872dd146101f15780632f745c591461020d57806342842e0e1461023d57806342966c68146102595780634f6ccce71461027557610135565b806301ffc9a71461013957806306fdde0314610169578063081812fc14610187578063095ea7b3146101b757806318160ddd146101d3575b5f80fd5b610153600480360381019061014e91906120e3565b61041b565b6040516101609190612128565b60405180910390f35b61017161042c565b60405161017e91906121cb565b60405180910390f35b6101a1600480360381019061019c919061221e565b6104bb565b6040516101ae9190612288565b60405180910390f35b6101d160048036038101906101cc91906122cb565b6104d6565b005b6101db6104ec565b6040516101e89190612318565b60405180910390f35b61020b60048036038101906102069190612331565b6104f8565b005b610227600480360381019061022291906122cb565b6105f7565b6040516102349190612318565b60405180910390f35b61025760048036038101906102529190612331565b61069b565b005b610273600480360381019061026e919061221e565b6106ba565b005b61028f600480360381019061028a919061221e565b6106d0565b60405161029c9190612318565b60405180910390f35b6102bf60048036038101906102ba919061221e565b610742565b6040516102cc9190612288565b60405180910390f35b6102ef60048036038101906102ea9190612381565b610753565b6040516102fc9190612318565b60405180910390f35b61030d610809565b005b61031761081c565b6040516103249190612288565b60405180910390f35b610335610844565b60405161034291906121cb565b60405180910390f35b610365600480360381019061036091906123d6565b6108d4565b005b610381600480360381019061037c9190612540565b6108ea565b005b61039d6004803603810190610398919061221e565b610907565b6040516103aa91906121cb565b60405180910390f35b6103cd60048036038101906103c8919061265e565b610919565b005b6103e960048036038101906103e491906126b8565b610953565b6040516103f69190612128565b60405180910390f35b61041960048036038101906104149190612381565b6109e1565b005b5f61042582610a65565b9050919050565b60605f805461043a90612723565b80601f016020809104026020016040519081016040528092919081815260200182805461046690612723565b80156104b15780601f10610488576101008083540402835291602001916104b1565b820191905f5260205f20905b81548152906001019060200180831161049457829003601f168201915b5050505050905090565b5f6104c582610ac5565b506104cf82610b4b565b9050919050565b6104e882826104e3610b84565b610b8b565b5050565b5f600880549050905090565b5f73ffffffffffffffffffffffffffffffffffffffff168273ffffffffffffffffffffffffffffffffffffffff1603610568575f6040517f64a0ae9200000000000000000000000000000000000000000000000000000000815260040161055f9190612288565b60405180910390fd5b5f61057b8383610576610b84565b610b9d565b90508373ffffffffffffffffffffffffffffffffffffffff168173ffffffffffffffffffffffffffffffffffffffff16146105f1578382826040517f64283d7b0000000000000000000000000000000000000000000000000000000081526004016105e893929190612753565b60405180910390fd5b50505050565b5f61060183610753565b82106106465782826040517fa57d13dc00000000000000000000000000000000000000000000000000000000815260040161063d929190612788565b60405180910390fd5b60065f8473ffffffffffffffffffffffffffffffffffffffff1673ffffffffffffffffffffffffffffffffffffffff1681526020019081526020015f205f8381526020019081526020015f2054905092915050565b6106b583838360405180602001604052805f8152506108ea565b505050565b6106cc5f826106c7610b84565b610b9d565b5050565b5f6106d96104ec565b821061071e575f826040517fa57d13dc000000000000000000000000000000000000000000000000000000008152600401610715929190612788565b60405180910390fd5b60088281548110610732576107316127af565b5b905f5260205f2001549050919050565b5f61074c82610ac5565b9050919050565b5f8073ffffffffffffffffffffffffffffffffffffffff168273ffffffffffffffffffffffffffffffffffffffff16036107c4575f6040517f89c62b640000000000000000000000000000000000000000000000000000000081526004016107bb9190612288565b60405180910390fd5b60035f8373ffffffffffffffffffffffffffffffffffffffff1673ffffffffffffffffffffffffffffffffffffffff1681526020019081526020015f20549050919050565b610811610bb2565b61081a5f610c39565b565b5f600b5f9054906101000a900473ffffffffffffffffffffffffffffffffffffffff16905090565b60606001805461085390612723565b80601f016020809104026020016040519081016040528092919081815260200182805461087f90612723565b80156108ca5780601f106108a1576101008083540402835291602001916108ca565b820191905f5260205f20905b8154815290600101906020018083116108ad57829003601f168201915b5050505050905090565b6108e66108df610b84565b8383610cfc565b5050565b6108f58484846104f8565b61090184848484610e65565b50505050565b606061091282611017565b9050919050565b610921610bb2565b5f600c5f81548092919061093490612809565b9190505590506109448382611122565b61094e818361113f565b505050565b5f60055f8473ffffffffffffffffffffffffffffffffffffffff1673ffffffffffffffffffffffffffffffffffffffff1681526020019081526020015f205f8373ffffffffffffffffffffffffffffffffffffffff1673ffffffffffffffffffffffffffffffffffffffff1681526020019081526020015f205f9054906101000a900460ff16905092915050565b6109e9610bb2565b5f73ffffffffffffffffffffffffffffffffffffffff168173ffffffffffffffffffffffffffffffffffffffff1603610a59575f6040517f1e4fbdf7000000000000000000000000000000000000000000000000000000008152600401610a509190612288565b60405180910390fd5b610a6281610c39565b50565b5f634906490660e01b7bffffffffffffffffffffffffffffffffffffffffffffffffffffffff1916827bffffffffffffffffffffffffffffffffffffffffffffffffffffffff19161480610abe5750610abd82611199565b5b9050919050565b5f80610ad083611212565b90505f73ffffffffffffffffffffffffffffffffffffffff168173ffffffffffffffffffffffffffffffffffffffff1603610b4257826040517f7e273289000000000000000000000000000000000000000000000000000000008152600401610b399190612318565b60405180910390fd5b80915050919050565b5f60045f8381526020019081526020015f205f9054906101000a900473ffffffffffffffffffffffffffffffffffffffff169050919050565b5f33905090565b610b98838383600161124b565b505050565b5f610ba984848461140a565b90509392505050565b610bba610b84565b73ffffffffffffffffffffffffffffffffffffffff16610bd861081c565b73ffffffffffffffffffffffffffffffffffffffff1614610c3757610bfb610b84565b6040517f118cdaa7000000000000000000000000000000000000000000000000000000008152600401610c2e9190612288565b60405180910390fd5b565b5f600b5f9054906101000a900473ffffffffffffffffffffffffffffffffffffffff16905081600b5f6101000a81548173ffffffffffffffffffffffffffffffffffffffff021916908373ffffffffffffffffffffffffffffffffffffffff1602179055508173ffffffffffffffffffffffffffffffffffffffff168173ffffffffffffffffffffffffffffffffffffffff167f8be0079c531659141344cd1fd0a4f28419497f9722a3daafe3b4186f6b6457e060405160405180910390a35050565b5f73ffffffffffffffffffffffffffffffffffffffff168273ffffffffffffffffffffffffffffffffffffffff1603610d6c57816040517f5b08ba18000000000000000000000000000000000000000000000000000000008152600401610d639190612288565b60405180910390fd5b8060055f8573ffffffffffffffffffffffffffffffffffffffff1673ffffffffffffffffffffffffffffffffffffffff1681526020019081526020015f205f8473ffffffffffffffffffffffffffffffffffffffff1673ffffffffffffffffffffffffffffffffffffffff1681526020019081526020015f205f6101000a81548160ff0219169083151502179055508173ffffffffffffffffffffffffffffffffffffffff168373ffffffffffffffffffffffffffffffffffffffff167f17307eab39ab6107e8899845ad3d59bd9653f200f220920489ca2b5937696c3183604051610e589190612128565b60405180910390a3505050565b5f8373ffffffffffffffffffffffffffffffffffffffff163b1115611011578273ffffffffffffffffffffffffffffffffffffffff1663150b7a02610ea8610b84565b8685856040518563ffffffff1660e01b8152600401610eca94939291906128a2565b6020604051808303815f875af1925050508015610f0557506040513d601f19601f82011682018060405250810190610f029190612900565b60015b610f86573d805f8114610f33576040519150601f19603f3d011682016040523d82523d5f602084013e610f38565b606091505b505f815103610f7e57836040517f64a0ae92000000000000000000000000000000000000000000000000000000008152600401610f759190612288565b60405180910390fd5b805181602001fd5b63150b7a0260e01b7bffffffffffffffffffffffffffffffffffffffffffffffffffffffff1916817bffffffffffffffffffffffffffffffffffffffffffffffffffffffff19161461100f57836040517f64a0ae920000000000000000000000000000000000000000000000000000000081526004016110069190612288565b60405180910390fd5b505b50505050565b606061102282610ac5565b505f600a5f8481526020019081526020015f20805461104090612723565b80601f016020809104026020016040519081016040528092919081815260200182805461106c90612723565b80156110b75780601f1061108e576101008083540402835291602001916110b7565b820191905f5260205f20905b81548152906001019060200180831161109a57829003601f168201915b505050505090505f6110c7611524565b90505f8151036110db57819250505061111d565b5f8251111561110f5780826040516020016110f7929190612965565b6040516020818303038152906040529250505061111d565b61111884611544565b925050505b919050565b61113b828260405180602001604052805f8152506115aa565b5050565b80600a5f8481526020019081526020015f20908161115d9190612b25565b507ff8e1a15aba9398e019f0b49df1a4fde98ee17ae345cb5f6b5e2c27f5033e8ce78260405161118d9190612318565b60405180910390a15050565b5f7f780e9d63000000000000000000000000000000000000000000000000000000007bffffffffffffffffffffffffffffffffffffffffffffffffffffffff1916827bffffffffffffffffffffffffffffffffffffffffffffffffffffffff1916148061120b575061120a826115c5565b5b9050919050565b5f60025f8381526020019081526020015f205f9054906101000a900473ffffffffffffffffffffffffffffffffffffffff169050919050565b808061128357505f73ffffffffffffffffffffffffffffffffffffffff168273ffffffffffffffffffffffffffffffffffffffff1614155b156113b5575f61129284610ac5565b90505f73ffffffffffffffffffffffffffffffffffffffff168373ffffffffffffffffffffffffffffffffffffffff16141580156112fc57508273ffffffffffffffffffffffffffffffffffffffff168173ffffffffffffffffffffffffffffffffffffffff1614155b801561130f575061130d8184610953565b155b1561135157826040517fa9fbf51f0000000000000000000000000000000000000000000000000000000081526004016113489190612288565b60405180910390fd5b81156113b357838573ffffffffffffffffffffffffffffffffffffffff168273ffffffffffffffffffffffffffffffffffffffff167f8c5be1e5ebec7d5bd14f71427d1e84f3dd0314c0f7b2291e5b200ac8c7c3b92560405160405180910390a45b505b8360045f8581526020019081526020015f205f6101000a81548173ffffffffffffffffffffffffffffffffffffffff021916908373ffffffffffffffffffffffffffffffffffffffff16021790555050505050565b5f806114178585856116a6565b90505f73ffffffffffffffffffffffffffffffffffffffff168173ffffffffffffffffffffffffffffffffffffffff160361145a57611455846118b1565b611499565b8473ffffffffffffffffffffffffffffffffffffffff168173ffffffffffffffffffffffffffffffffffffffff16146114985761149781856118f5565b5b5b5f73ffffffffffffffffffffffffffffffffffffffff168573ffffffffffffffffffffffffffffffffffffffff16036114da576114d584611a3f565b611519565b8473ffffffffffffffffffffffffffffffffffffffff168173ffffffffffffffffffffffffffffffffffffffff1614611518576115178585611aff565b5b5b809150509392505050565b6060604051806080016040528060478152602001612c8260479139905090565b606061154f82610ac5565b505f611559611524565b90505f8151116115775760405180602001604052805f8152506115a2565b8061158184611b83565b604051602001611592929190612965565b6040516020818303038152906040525b915050919050565b6115b48383611c4d565b6115c05f848484610e65565b505050565b5f7f80ac58cd000000000000000000000000000000000000000000000000000000007bffffffffffffffffffffffffffffffffffffffffffffffffffffffff1916827bffffffffffffffffffffffffffffffffffffffffffffffffffffffff1916148061168f57507f5b5e139f000000000000000000000000000000000000000000000000000000007bffffffffffffffffffffffffffffffffffffffffffffffffffffffff1916827bffffffffffffffffffffffffffffffffffffffffffffffffffffffff1916145b8061169f575061169e82611d40565b5b9050919050565b5f806116b184611212565b90505f73ffffffffffffffffffffffffffffffffffffffff168373ffffffffffffffffffffffffffffffffffffffff16146116f2576116f1818486611da9565b5b5f73ffffffffffffffffffffffffffffffffffffffff168173ffffffffffffffffffffffffffffffffffffffff161461177d576117315f855f8061124b565b600160035f8373ffffffffffffffffffffffffffffffffffffffff1673ffffffffffffffffffffffffffffffffffffffff1681526020019081526020015f205f82825403925050819055505b5f73ffffffffffffffffffffffffffffffffffffffff168573ffffffffffffffffffffffffffffffffffffffff16146117fc57600160035f8773ffffffffffffffffffffffffffffffffffffffff1673ffffffffffffffffffffffffffffffffffffffff1681526020019081526020015f205f82825401925050819055505b8460025f8681526020019081526020015f205f6101000a81548173ffffffffffffffffffffffffffffffffffffffff021916908373ffffffffffffffffffffffffffffffffffffffff160217905550838573ffffffffffffffffffffffffffffffffffffffff168273ffffffffffffffffffffffffffffffffffffffff167fddf252ad1be2c89b69c2b068fc378daa952ba7f163c4a11628f55a4df523b3ef60405160405180910390a4809150509392505050565b60088054905060095f8381526020019081526020015f2081905550600881908060018154018082558091505060019003905f5260205f20015f909190919091505550565b5f6118ff83610753565b90505f60075f8481526020019081526020015f205490508181146119d6575f60065f8673ffffffffffffffffffffffffffffffffffffffff1673ffffffffffffffffffffffffffffffffffffffff1681526020019081526020015f205f8481526020019081526020015f205490508060065f8773ffffffffffffffffffffffffffffffffffffffff1673ffffffffffffffffffffffffffffffffffffffff1681526020019081526020015f205f8481526020019081526020015f20819055508160075f8381526020019081526020015f2081905550505b60075f8481526020019081526020015f205f905560065f8573ffffffffffffffffffffffffffffffffffffffff1673ffffffffffffffffffffffffffffffffffffffff1681526020019081526020015f205f8381526020019081526020015f205f905550505050565b5f6001600880549050611a529190612bf4565b90505f60095f8481526020019081526020015f205490505f60088381548110611a7e57611a7d6127af565b5b905f5260205f20015490508060088381548110611a9e57611a9d6127af565b5b905f5260205f2001819055508160095f8381526020019081526020015f208190555060095f8581526020019081526020015f205f90556008805480611ae657611ae5612c27565b5b600190038181905f5260205f20015f9055905550505050565b5f6001611b0b84610753565b611b159190612bf4565b90508160065f8573ffffffffffffffffffffffffffffffffffffffff1673ffffffffffffffffffffffffffffffffffffffff1681526020019081526020015f205f8381526020019081526020015f20819055508060075f8481526020019081526020015f2081905550505050565b60605f6001611b9184611e6c565b0190505f8167ffffffffffffffff811115611baf57611bae61241c565b5b6040519080825280601f01601f191660200182016040528015611be15781602001600182028036833780820191505090505b5090505f82602001820190505b600115611c42578080600190039150507f3031323334353637383961626364656600000000000000000000000000000000600a86061a8153600a8581611c3757611c36612c54565b5b0494505f8503611bee575b819350505050919050565b5f73ffffffffffffffffffffffffffffffffffffffff168273ffffffffffffffffffffffffffffffffffffffff1603611cbd575f6040517f64a0ae92000000000000000000000000000000000000000000000000000000008152600401611cb49190612288565b60405180910390fd5b5f611cc983835f610b9d565b90505f73ffffffffffffffffffffffffffffffffffffffff168173ffffffffffffffffffffffffffffffffffffffff1614611d3b575f6040517f73c6ac6e000000000000000000000000000000000000000000000000000000008152600401611d329190612288565b60405180910390fd5b505050565b5f7f01ffc9a7000000000000000000000000000000000000000000000000000000007bffffffffffffffffffffffffffffffffffffffffffffffffffffffff1916827bffffffffffffffffffffffffffffffffffffffffffffffffffffffff1916149050919050565b611db4838383611fbd565b611e67575f73ffffffffffffffffffffffffffffffffffffffff168373ffffffffffffffffffffffffffffffffffffffff1603611e2857806040517f7e273289000000000000000000000000000000000000000000000000000000008152600401611e1f9190612318565b60405180910390fd5b81816040517f177e802f000000000000000000000000000000000000000000000000000000008152600401611e5e929190612788565b60405180910390fd5b505050565b5f805f90507a184f03e93ff9f4daa797ed6e38ed64bf6a1f0100000000000000008310611ec8577a184f03e93ff9f4daa797ed6e38ed64bf6a1f0100000000000000008381611ebe57611ebd612c54565b5b0492506040810190505b6d04ee2d6d415b85acef81000000008310611f05576d04ee2d6d415b85acef81000000008381611efb57611efa612c54565b5b0492506020810190505b662386f26fc100008310611f3457662386f26fc100008381611f2a57611f29612c54565b5b0492506010810190505b6305f5e1008310611f5d576305f5e1008381611f5357611f52612c54565b5b0492506008810190505b6127108310611f82576127108381611f7857611f77612c54565b5b0492506004810190505b60648310611fa55760648381611f9b57611f9a612c54565b5b0492506002810190505b600a8310611fb4576001810190505b80915050919050565b5f8073ffffffffffffffffffffffffffffffffffffffff168373ffffffffffffffffffffffffffffffffffffffff161415801561207457508273ffffffffffffffffffffffffffffffffffffffff168473ffffffffffffffffffffffffffffffffffffffff16148061203557506120348484610953565b5b8061207357508273ffffffffffffffffffffffffffffffffffffffff1661205b83610b4b565b73ffffffffffffffffffffffffffffffffffffffff16145b5b90509392505050565b5f604051905090565b5f80fd5b5f80fd5b5f7fffffffff0000000000000000000000000000000000000000000000000000000082169050919050565b6120c28161208e565b81146120cc575f80fd5b50565b5f813590506120dd816120b9565b92915050565b5f602082840312156120f8576120f7612086565b5b5f612105848285016120cf565b91505092915050565b5f8115159050919050565b6121228161210e565b82525050565b5f60208201905061213b5f830184612119565b92915050565b5f81519050919050565b5f82825260208201905092915050565b5f5b8381101561217857808201518184015260208101905061215d565b5f8484015250505050565b5f601f19601f8301169050919050565b5f61219d82612141565b6121a7818561214b565b93506121b781856020860161215b565b6121c081612183565b840191505092915050565b5f6020820190508181035f8301526121e38184612193565b905092915050565b5f819050919050565b6121fd816121eb565b8114612207575f80fd5b50565b5f81359050612218816121f4565b92915050565b5f6020828403121561223357612232612086565b5b5f6122408482850161220a565b91505092915050565b5f73ffffffffffffffffffffffffffffffffffffffff82169050919050565b5f61227282612249565b9050919050565b61228281612268565b82525050565b5f60208201905061229b5f830184612279565b92915050565b6122aa81612268565b81146122b4575f80fd5b50565b5f813590506122c5816122a1565b92915050565b5f80604083850312156122e1576122e0612086565b5b5f6122ee858286016122b7565b92505060206122ff8582860161220a565b9150509250929050565b612312816121eb565b82525050565b5f60208201905061232b5f830184612309565b92915050565b5f805f6060848603121561234857612347612086565b5b5f612355868287016122b7565b9350506020612366868287016122b7565b92505060406123778682870161220a565b9150509250925092565b5f6020828403121561239657612395612086565b5b5f6123a3848285016122b7565b91505092915050565b6123b58161210e565b81146123bf575f80fd5b50565b5f813590506123d0816123ac565b92915050565b5f80604083850312156123ec576123eb612086565b5b5f6123f9858286016122b7565b925050602061240a858286016123c2565b9150509250929050565b5f80fd5b5f80fd5b7f4e487b71000000000000000000000000000000000000000000000000000000005f52604160045260245ffd5b61245282612183565b810181811067ffffffffffffffff821117156124715761247061241c565b5b80604052505050565b5f61248361207d565b905061248f8282612449565b919050565b5f67ffffffffffffffff8211156124ae576124ad61241c565b5b6124b782612183565b9050602081019050919050565b828183375f83830152505050565b5f6124e46124df84612494565b61247a565b905082815260208101848484011115612500576124ff612418565b5b61250b8482856124c4565b509392505050565b5f82601f83011261252757612526612414565b5b81356125378482602086016124d2565b91505092915050565b5f805f806080858703121561255857612557612086565b5b5f612565878288016122b7565b9450506020612576878288016122b7565b93505060406125878782880161220a565b925050606085013567ffffffffffffffff8111156125a8576125a761208a565b5b6125b487828801612513565b91505092959194509250565b5f67ffffffffffffffff8211156125da576125d961241c565b5b6125e382612183565b9050602081019050919050565b5f6126026125fd846125c0565b61247a565b90508281526020810184848401111561261e5761261d612418565b5b6126298482856124c4565b509392505050565b5f82601f83011261264557612644612414565b5b81356126558482602086016125f0565b91505092915050565b5f806040838503121561267457612673612086565b5b5f612681858286016122b7565b925050602083013567ffffffffffffffff8111156126a2576126a161208a565b5b6126ae85828601612631565b9150509250929050565b5f80604083850312156126ce576126cd612086565b5b5f6126db858286016122b7565b92505060206126ec858286016122b7565b9150509250929050565b7f4e487b71000000000000000000000000000000000000000000000000000000005f52602260045260245ffd5b5f600282049050600182168061273a57607f821691505b60208210810361274d5761274c6126f6565b5b50919050565b5f6060820190506127665f830186612279565b6127736020830185612309565b6127806040830184612279565b949350505050565b5f60408201905061279b5f830185612279565b6127a86020830184612309565b9392505050565b7f4e487b71000000000000000000000000000000000000000000000000000000005f52603260045260245ffd5b7f4e487b71000000000000000000000000000000000000000000000000000000005f52601160045260245ffd5b5f612813826121eb565b91507fffffffffffffffffffffffffffffffffffffffffffffffffffffffffffffffff8203612845576128446127dc565b5b600182019050919050565b5f81519050919050565b5f82825260208201905092915050565b5f61287482612850565b61287e818561285a565b935061288e81856020860161215b565b61289781612183565b840191505092915050565b5f6080820190506128b55f830187612279565b6128c26020830186612279565b6128cf6040830185612309565b81810360608301526128e1818461286a565b905095945050505050565b5f815190506128fa816120b9565b92915050565b5f6020828403121561291557612914612086565b5b5f612922848285016128ec565b91505092915050565b5f81905092915050565b5f61293f82612141565b612949818561292b565b935061295981856020860161215b565b80840191505092915050565b5f6129708285612935565b915061297c8284612935565b91508190509392505050565b5f819050815f5260205f209050919050565b5f6020601f8301049050919050565b5f82821b905092915050565b5f600883026129e47fffffffffffffffffffffffffffffffffffffffffffffffffffffffffffffffff826129a9565b6129ee86836129a9565b95508019841693508086168417925050509392505050565b5f819050919050565b5f612a29612a24612a1f846121eb565b612a06565b6121eb565b9050919050565b5f819050919050565b612a4283612a0f565b612a56612a4e82612a30565b8484546129b5565b825550505050565b5f90565b612a6a612a5e565b612a75818484612a39565b505050565b5b81811015612a9857612a8d5f82612a62565b600181019050612a7b565b5050565b601f821115612add57612aae81612988565b612ab78461299a565b81016020851015612ac6578190505b612ada612ad28561299a565b830182612a7a565b50505b505050565b5f82821c905092915050565b5f612afd5f1984600802612ae2565b1980831691505092915050565b5f612b158383612aee565b9150826002028217905092915050565b612b2e82612141565b67ffffffffffffffff811115612b4757612b4661241c565b5b612b518254612723565b612b5c828285612a9c565b5f60209050601f831160018114612b8d575f8415612b7b578287015190505b612b858582612b0a565b865550612bec565b601f198416612b9b86612988565b5f5b82811015612bc257848901518255600182019150602085019450602081019050612b9d565b86831015612bdf5784890151612bdb601f891682612aee565b8355505b6001600288020188555050505b505050505050565b5f612bfe826121eb565b9150612c09836121eb565b9250828203905081811115612c2157612c206127dc565b5b92915050565b7f4e487b71000000000000000000000000000000000000000000000000000000005f52603160045260245ffd5b7f4e487b71000000000000000000000000000000000000000000000000000000005f52601260045260245ffdfe687474703a2f2f323032332d70726f6a6563742d7075626c69632e73332d776562736974652d61702d736f757468656173742d312e616d617a6f6e6177732e636f6d2f6e66742fa264697066735822122062f0f8cb36c5cf2d9d6f30992ed308040a57a06e23707ef17f7efcf1654eb7ab64736f6c63430008140033",
  "immutableReferences": {},
  "source": "// SPDX-License-Identifier: MIT\r\n// Compatible with OpenZeppelin Contracts ^5.0.0\r\npragma solidity ^0.8.20;\r\n\r\nimport \"@openzeppelin/contracts/token/ERC721/ERC721.sol\";\r\nimport \"@openzeppelin/contracts/token/ERC721/extensions/ERC721Enumerable.sol\";\r\nimport \"@openzeppelin/contracts/token/ERC721/extensions/ERC721URIStorage.sol\";\r\nimport \"@openzeppelin/contracts/token/ERC721/extensions/ERC721Burnable.sol\";\r\nimport \"@openzeppelin/contracts/access/Ownable.sol\";\r\n\r\ncontract Scolaire is ERC721, ERC721Enumerable, ERC721URIStorage, ERC721Burnable, Ownable {\r\n    uint256 private _nextTokenId;\r\n\r\n    constructor(address initialOwner)\r\n        ERC721(\"Scolaire\", \"SCOL\")\r\n        Ownable(initialOwner)\r\n    {}\r\n\r\n    function _baseURI() internal pure override returns (string memory) {\r\n        return \"http://2023-project-public.s3-website-ap-southeast-1.amazonaws.com/nft/\";\r\n    }\r\n\r\n    function safeMint(address to, string memory uri) public onlyOwner {\r\n        uint256 tokenId = _nextTokenId++;\r\n        _safeMint(to, tokenId);\r\n        _setTokenURI(tokenId, uri);\r\n    }\r\n\r\n    // The following functions are overrides required by Solidity.\r\n\r\n    function _update(address to, uint256 tokenId, address auth)\r\n        internal\r\n        override(ERC721, ERC721Enumerable)\r\n        returns (address)\r\n    {\r\n        return super._update(to, tokenId, auth);\r\n    }\r\n\r\n    function _increaseBalance(address account, uint128 value)\r\n        internal\r\n        override(ERC721, ERC721Enumerable)\r\n    {\r\n        super._increaseBalance(account, value);\r\n    }\r\n\r\n    function tokenURI(uint256 tokenId)\r\n        public\r\n        view\r\n        override(ERC721, ERC721URIStorage)\r\n        returns (string memory)\r\n    {\r\n        return super.tokenURI(tokenId);\r\n    }\r\n\r\n    function supportsInterface(bytes4 interfaceId)\r\n        public\r\n        view\r\n        override(ERC721, ERC721Enumerable, ERC721URIStorage)\r\n        returns (bool)\r\n    {\r\n        return super.supportsInterface(interfaceId);\r\n    }\r\n}\r\n",
  "sourcePath": "D:\\Project\\Boris\\HKIT\\project\\admission_smart_contract_src\\admission_smart_contract\\contracts\\Scolaire.sol",
  "compiler": {
    "name": "solc",
    "version": "0.8.20+commit.a1b79de6.Emscripten.clang"
  },
  "schemaVersion": "3.4.16",
  "updatedAt": "2024-02-23T07:06:36.933Z",
  "networkType": "ethereum",
  "devdoc": {
    "errors": {
      "ERC721EnumerableForbiddenBatchMint()": [
        {
          "details": "Batch mint is not allowed."
        }
      ],
      "ERC721IncorrectOwner(address,uint256,address)": [
        {
          "details": "Indicates an error related to the ownership over a particular token. Used in transfers.",
          "params": {
            "owner": "Address of the current owner of a token.",
            "sender": "Address whose tokens are being transferred.",
            "tokenId": "Identifier number of a token."
          }
        }
      ],
      "ERC721InsufficientApproval(address,uint256)": [
        {
          "details": "Indicates a failure with the `operator`s approval. Used in transfers.",
          "params": {
            "operator": "Address that may be allowed to operate on tokens without being their owner.",
            "tokenId": "Identifier number of a token."
          }
        }
      ],
      "ERC721InvalidApprover(address)": [
        {
          "details": "Indicates a failure with the `approver` of a token to be approved. Used in approvals.",
          "params": {
            "approver": "Address initiating an approval operation."
          }
        }
      ],
      "ERC721InvalidOperator(address)": [
        {
          "details": "Indicates a failure with the `operator` to be approved. Used in approvals.",
          "params": {
            "operator": "Address that may be allowed to operate on tokens without being their owner."
          }
        }
      ],
      "ERC721InvalidOwner(address)": [
        {
          "details": "Indicates that an address can't be an owner. For example, `address(0)` is a forbidden owner in EIP-20. Used in balance queries.",
          "params": {
            "owner": "Address of the current owner of a token."
          }
        }
      ],
      "ERC721InvalidReceiver(address)": [
        {
          "details": "Indicates a failure with the token `receiver`. Used in transfers.",
          "params": {
            "receiver": "Address to which tokens are being transferred."
          }
        }
      ],
      "ERC721InvalidSender(address)": [
        {
          "details": "Indicates a failure with the token `sender`. Used in transfers.",
          "params": {
            "sender": "Address whose tokens are being transferred."
          }
        }
      ],
      "ERC721NonexistentToken(uint256)": [
        {
          "details": "Indicates a `tokenId` whose `owner` is the zero address.",
          "params": {
            "tokenId": "Identifier number of a token."
          }
        }
      ],
      "ERC721OutOfBoundsIndex(address,uint256)": [
        {
          "details": "An `owner`'s token query was out of bounds for `index`. NOTE: The owner being `address(0)` indicates a global out of bounds index."
        }
      ],
      "OwnableInvalidOwner(address)": [
        {
          "details": "The owner is not a valid owner account. (eg. `address(0)`)"
        }
      ],
      "OwnableUnauthorizedAccount(address)": [
        {
          "details": "The caller account is not authorized to perform an operation."
        }
      ]
    },
    "events": {
      "Approval(address,address,uint256)": {
        "details": "Emitted when `owner` enables `approved` to manage the `tokenId` token."
      },
      "ApprovalForAll(address,address,bool)": {
        "details": "Emitted when `owner` enables or disables (`approved`) `operator` to manage all of its assets."
      },
      "BatchMetadataUpdate(uint256,uint256)": {
        "details": "This event emits when the metadata of a range of tokens is changed. So that the third-party platforms such as NFT market could timely update the images and related attributes of the NFTs."
      },
      "MetadataUpdate(uint256)": {
        "details": "This event emits when the metadata of a token is changed. So that the third-party platforms such as NFT market could timely update the images and related attributes of the NFT."
      },
      "Transfer(address,address,uint256)": {
        "details": "Emitted when `tokenId` token is transferred from `from` to `to`."
      }
    },
    "kind": "dev",
    "methods": {
      "approve(address,uint256)": {
        "details": "See {IERC721-approve}."
      },
      "balanceOf(address)": {
        "details": "See {IERC721-balanceOf}."
      },
      "burn(uint256)": {
        "details": "Burns `tokenId`. See {ERC721-_burn}. Requirements: - The caller must own `tokenId` or be an approved operator."
      },
      "getApproved(uint256)": {
        "details": "See {IERC721-getApproved}."
      },
      "isApprovedForAll(address,address)": {
        "details": "See {IERC721-isApprovedForAll}."
      },
      "name()": {
        "details": "See {IERC721Metadata-name}."
      },
      "owner()": {
        "details": "Returns the address of the current owner."
      },
      "ownerOf(uint256)": {
        "details": "See {IERC721-ownerOf}."
      },
      "renounceOwnership()": {
        "details": "Leaves the contract without owner. It will not be possible to call `onlyOwner` functions. Can only be called by the current owner. NOTE: Renouncing ownership will leave the contract without an owner, thereby disabling any functionality that is only available to the owner."
      },
      "safeTransferFrom(address,address,uint256)": {
        "details": "See {IERC721-safeTransferFrom}."
      },
      "safeTransferFrom(address,address,uint256,bytes)": {
        "details": "See {IERC721-safeTransferFrom}."
      },
      "setApprovalForAll(address,bool)": {
        "details": "See {IERC721-setApprovalForAll}."
      },
      "symbol()": {
        "details": "See {IERC721Metadata-symbol}."
      },
      "tokenByIndex(uint256)": {
        "details": "See {IERC721Enumerable-tokenByIndex}."
      },
      "tokenOfOwnerByIndex(address,uint256)": {
        "details": "See {IERC721Enumerable-tokenOfOwnerByIndex}."
      },
      "totalSupply()": {
        "details": "See {IERC721Enumerable-totalSupply}."
      },
      "transferFrom(address,address,uint256)": {
        "details": "See {IERC721-transferFrom}."
      },
      "transferOwnership(address)": {
        "details": "Transfers ownership of the contract to a new account (`newOwner`). Can only be called by the current owner."
      }
    },
    "version": 1
  },
  "userdoc": {
    "kind": "user",
    "methods": {},
    "version": 1
  }
}